:0E2DD50048656C6C6F20776F726C640D0A009D
:0927A70041119F304211A0000015
:102D1900E4FFFE43B21175B9800FBF00010EEF64E5
:0F2D2900144E70F543B9C0E5B930E5FB75A90349
:012D38002278
:0F2DB800758921E4F58E758D30758B30D28E22A2
:102C80007FFA122C917FFA122C917FFA122C917FED
:012C9000FA49
:102C9100AE071FEE6011758CF0758A80D28C308D75
:082CA100FDC28CC28D80E92206
:062DF900759810D299222A
:082DF1003099FDC2998F99226F
:0E2DC7003098FDC29890119EE599F0E0FF2231
:102D390075F1FF75F2FF75F4FF75F5FF75A5FB7564
:0F2D4900A4FF75A7FF75AEFF43E10175E24022BD
:102B7A0053D9BF122D19122D39122DB8122DF97BE6
:102B8A00FF7A2D79D512074D122D75122A0FD2AF61
:0C2B9A00D290122C80C290122C8080F48B
:102DA800000100020004000800100020004000801C
:10291800E47B04FAF9F8E0FCA3E0FDA3E0FEA3E001
:10292800FF1211AF900002EEF0A3EFF0C295D2941F
:10293800C291E4FF122962C294D291900000A3E0F0
:10294800FF122962900000E0FF122962900002A3A2
:0A295800E0FF122962900002E0FF88
:0B29620075AEFF8FC7C29700D297220E
:0D2DE300E4F5AE75C7FFC29600AFC7D296EB
:012DF00022C0
:102D7500C295D294C2917FFF122962D295E4FFFEDB
:0B2D85000FBF00010EBE0BF8BFB8F539
:012D90002220
:1028C100C295EF7806C333CE33CED8F9FF9000021C
:1028D100EEF0A3EFF0D294C2917F60122962C2940C
:1028E100D291122954D294C2917FD0122962D292EC
:1028F1007F01122C913092FDD294C2917F701229E6
:1029010062C294C2917F01122C91122DE3D295EFF4
:0629110030E002C322D3F6
:01291700229D
:1025720090112F121241901133EBF0A3EAF0A3E96C
:01258200F068
:1025830090112FA3A3A3E05403FFE4FEFDFCFB7A09
:1025930002F9F8121124900000EEF0A3EFF090116D
:1025A3002F122918D294C2917F30122962D292300D
:1025B30092FDE4F5AE75C7FFC294C291FFFEC296C9
:1025C30000901133E0FBA3E475F00112110EA9F0A2
:1025D300FAE5C712108ED2960FBF00010EE4B507BD
:0725E300DDEEB402D9D29530
:0125EA0022CE
:0627410090112F1212415D
:1027470090112FA3A3A3E05403FFE4FEFDFCFB7A43
:1027570002F9F8121124900000EEF0A3EFF09011A7
:102767002F122918D294C2917F30122962D2923047
:1027770092FDE4F5AE75C7FFC294C291FFFEC29603
:102787000074042FF58274023EF583E5C7F0D296F4
:0F2797000FBF00010EE4B507E5EEB408E1D295DF
:0127A6002210
:102C2A00D294C2917F10122962D2923092FDD2942C
:102C3A00C2917F70122962C294C2917580FF122DCF
:0A2C4A00E3D295EF30E002C322D37D
:012C5400225D
:0625EB0090112F121241B5
:1025F10090112FA3A3A3E05403FFE4FEFDFCFB7A9B
:1026010002F9F8121124900000EEF0A3EFF0E47B40
:1026110004FAF9F890112FE0FCA3E0FDA3E0FEA37A
:10262100E0FF1211AF900002EEF0A3EFF0C295D2DD
:1026310094C2917F8012293CC294C291E4FFFED2E0
:102641009774042FF58274023EF583E0F5C7C297B3
:102651000FBF00010EE4B507E6EEB408E2D297120F
:022661002C2A21
:012663002254
:102A0F00759601759708E59620E7FB7596077597FC
:102A1F0003E59620E7FB759609759704E59620E781
:102A2F00FB75960B759704E59620E7FB75D7E07558
:102A3F00960F759780E59620E7FB43E602759601A2
:092A4F00E4F597E59620E7FB226F
:10296D0090112BECF0A3EDF0A3EBF0A3EAF0A3E9AB
:01297D00F069
:10297E00EF543FF596E59620E7FBE4FFFED390116A
:10298E002CE09F90112BE09E4023439680E59620ED
:10299E00E7FB90112DE0FBA3E0FAA3E0F98F828E06
:1029AE0083E5971210A00FBF00010E80D0E4F596BC
:0129BE0022F6
:102A580090112FECF0A3EDF0A3EBF0A3EAF0A3E9BB
:012A6800F07D
:102A69008F96E4FFFED3901130E09F90112FE09EE6
:102A79004020E59620E7FB901131E0FBA3E0FAA3A3
:102A8900E0F98F828E83121061F5970FBF00010E56
:052A990080D3E4F59676
:012A9E002215
:0300430002211681
:10211600C0E0C0F0C083C082C0D075D000C000C08F
:0D21260001C002C003C004C005C006C00710
:10213300759686E59620E7FB901126E597F0759650
:1021430082E59620E7FB901127E597F0759684E5E5
:102153009620E7FB901128E597F0901126E030E1F7
:1021630003120042901126E030E203122CF7901183
:1021730026E030E003120041901127E030E0031223
:10218300171F901127E030E10312280A901128E06D
:0621930030E20312224CB1
:10219900D007D006D005D004D003D002D001D0009A
:0B21A900D0D0D082D083D0F0D0E03244
:102CF7009011997402F0759601E4F597E59620E72F
:102D0700FBE4901193F0A37403F0A3F0E490112572
:022D1700F022A8
:01004100229C
:01004200229B
:102664001201000200000040431001810001040B2C
:102674001B0109022000010100806409040000021A
:1026840008065000070581024000FF0705020240CA
:1026940000FF0403090407034368696E61100346DD
:1026A4004C415348204469736B20322E302603007A
:1026B4008002021F00000044495930303120204676
:1026C4004C415348204449534B20202020202032A1
:0326D4002E303075
:1027B00042119A010042119C00004311930004044D
:0427C000411199002A
:10171F00E4FF75960EF597E59620E7FB759691E534
:10172F009620E7FBAF97EF30E41B7596117597087E
:10173F00E59620E7FB759611759780E59620E7FBF8
:10174F00E4901193F0EF30E210759611E4F597E500
:10175F009620E7FBE4901193F0EF20E0030217F5DA
:10176F00901193E060030217F57B017A1179877D61
:10177F0008FC7F2012296D901188E02402605F24FD
:10178F00FEB40C00505D90179CF82828730217C008
:10179F000217C50217F20217CA0217F20217CF0279
:1017AF0017D40217F20217D90217DE0217E3021736
:1017BF00E8121FCE803012247D802B1224F8802651
:1017CF001200038021121E77801C122868801712C6
:1017DF0024008012122AE1800D122D918008122B05
:1017EF00168003122D58901193E0640160030218C4
:0117FF00BE2B
:10180000901129F0A3F0759691E59620E7FB9011D1
:1018100029E597F0A37402F0C3901192E0944090F0
:101820001191E09400403C901196E0FBA3E0FAA3F4
:10183000E0F97D407C007F20122A58901197E475D2
:10184000F0401210F8901192E024C0F0901191E055
:1018500034FFF0901190E02440F090118FE03400BC
:10186000F08024901191E0FCA3E0FD901196E0FB44
:10187000A3E0FAA3E0F97F20122A5890112AE0444D
:1018800008F0E4901193F090118EE0FE90118DE03D
:101890007C002400FFEC3EFE90118FE0B50611A302
:1018A000E0B5070C90112AE04408F0E4901193F0A1
:0E18B00075961190112AE0F597E59620E7FB5A
:0118BE002207
:102D580075960EE4F597E59620E7FB75961175973D
:0D2D680020E59620E7FB9011937404F02203
:101FCE00901187E0247F60071460132402707290D2
:101FDE0011967401F0A37411F0A3749C80579011A4
:101FEE008BE0FFB4812A901194E0901196B4030C0B
:101FFE007401F0A37411F0A3749A800A7401F0A313
:10200E007411F0A3749CF0901191E4F0A37402F09B
:10201E00EFB40230901195E0B4030DA37401F0A358
:10202E007411F0A3749A800D9011967401F0A3743C
:10203E0011F0A3749CF0901191E4F0A37402F0805F
:10204E0003122D58901193E0640460187596117563
:10205E009740E59620E7FB9011937401F0E4901100
:05206E008FF0A3F02239
:10247D00901187E030E152901189E0704C90118BF2
:10248D00E0FF64816005EF6402703EEFB4811D755D
:10249D00960E759701E59620E7FB75961175974099
:1024AD00E59620E7FBE4901194F0802075960E756B
:1024BD009702E59620E7FB759614759780E59620B3
:1024CD00E7FBE4901195F08003122D58901193E0E5
:1024DD0064046016759611759740E59620E7FB75B7
:0B24ED009611759708E59620E7FB228A
:1024F800901187E030E151901189E0704B90118B79
:10250800E0FF64816005EF6402703DEFB4811B75E4
:10251800960E759701E59620E7FB7596117597104D
:10252800E59620E7FB901194801975960E75970231
:10253800E59620E7FB759614759720E59620E7FB4E
:102548009011957403F08003122D58901193E06454
:10255800046016759611759740E59620E7FB759609
:0A25680011759708E59620E7FB22A5
:10000300901189E0FF60179011997403F0E4F5965D
:100013008F97E59620E7FBE4901193F0800690110B
:10002300997402F0759611759740E59620E7FB7574
:0B0033009611759708E59620E7FB2268
:101E770090118EE0FE90118DE07C002400FFEC3E77
:101E8700FE90118AE024FE602914605B24027076BC
:101E970090119674FFF0A37426F0A37464F0D3EF47
:101EA7009412EE94009011914057E4F0A37412F04D
:101EB700805490119674FFF0A37426F0A37476F003
:101EC700EF64094E700A901191F0A37409F08036FF
:101ED700EF64204E70028005EFF44E702990119147
:101EE700F0A37420F0801F901189E02496F9E43460
:101EF70026FA90119674FFF0A3EAF0A3E9F0901187
:101F070091EEF0A3EFF0759611759740E59620E7EF
:0E1F1700FB9011937401F0E490118FF0A3F091
:011F25002299
:10286800901199E0FFB404169011967401F0A374C6
:1028780011F0A3749AF0901191E4F0A304F0EFB46E
:1028880003169011967401F0A37411F0A3749CF0D0
:10289800901191E4F0A304F0901193E0640460189F
:1028A800759611759740E59620E7FB901193740192
:0928B800F0E490118FF0A3F0226E
:10240000901189E0D3940040489011997404F075BC
:10241000960E759701E59620E7FB7596127597A0C5
:10242000E59620E7FBE4901194F075960E759702FF
:10243000E59620E7FB759615759780E59620E7FBF6
:10244000E4901195F075960EF597E59630E70F80BC
:10245000F99011997403F090119404F0A3F0901185
:1024600093E064046016759611759740E59620E731
:0D247000FB759611759708E59620E7FB2295
:102AE1009011967401F0A37411F0A3749CF09011ED
:102AF10091E4F0A304F0A3E06404601875961175E5
:102B01009740E59620E7FB9011937401F0E4901152
:052B11008FF0A3F0228B
:102D9100759611759740E59620E7FB759611759725
:072DA10008E59620E7FB2284
:102B16009011967401F0A37411F0A3749CF09011B7
:102B260091E4F0A304F0A3E06404600A7401F0E405
:102B360090118FF0A3F0759611759740E59620E7F2
:022B4600FB2270
:1012E8000003E80000000200008002021F00000066
:1012F80047656E657269632055534220466C617379
:101308006820447269766520257A21590B00000807
:101318000000000000000200000000080003E300D5
:1013280002000200637C777BF26B6FC53001672B8C
:10133800FED7AB76CA82C97DFA5947F0ADD4A2AFC1
:101348009CA472C0B7FD9326363FF7CC34A5E5F1CF
:1013580071D8311504C723C31896059A071280E27D
:10136800EB27B27509832C1A1B6E5AA0523BD6B3D1
:1013780029E32F8453D100ED20FCB15B6ACBBE3941
:101388004A4C58CFD0EFAAFB434D338545F9027F2D
:10139800503C9FA851A3408F929D38F5BCB6DA21E6
:1013A80010FFF3D2CD0C13EC5F974417C4A77E3D12
:1013B800645D197360814FDC222A908846EEB81468
:1013C800DE5E0BDBE0323A0A4906245CC2D3AC622B
:1013D8009195E479E7C8376D8DD54EA96C56F4EA36
:1013E800657AAE08BA78252E1CA6B4C6E8DD741F47
:1013F8004BBD8B8A703EB5664803F60E613557B90A
:1014080086C11D9EE1F8981169D98E949B1E87E9C3
:10141800CE5528DF8CA1890DBFE6426841992D0F72
:10142800B054BB1652096AD53036A538BF40A39EC2
:1014380081F3D7FB7CE339829B2FFF87348E4344AB
:10144800C4DEE9CB547B9432A6C2233DEE4C950B07
:1014580042FAC34E082EA16628D924B2765BA24967
:101468006D8BD12572F8F66486689816D4A45CCC86
:101478005D65B6926C704850FDEDB9DA5E15465759
:10148800A78D9D8490D8AB008CBCD30AF7E458058F
:10149800B8B34506D02C1E8FCA3F0F02C1AFBD039B
:1014A80001138A6B3A9111414F67DCEA97F2CFCE6C
:1014B800F0B4E67396AC7422E7AD3585E2F937E807
:1014C8001C75DF6E47F11A711D29C5896FB7620E49
:1014D800AA18BE1BFC563E4BC6D279209ADBC0FE2A
:1014E80078CD5AF41FDDA8338807C731B1121059D7
:1014F8002780EC5F60517FA919B54A0D2DE57A9FC9
:1015080093C99CEFA0E03B4DAE2AF5B0C8EBBB3CBD
:1015180083539961172B047EBA77D626E169146341
:0E15280055210C7D01020408102040801B3666
:1027C400510CFB7368656A6B736168676173647845
:1027D40063646600411125004D0F105553425300A8
:1027E400000000000000000043111E010D0C420C0B
:1027F400040000420CF90000410F0F00420C0600D7
:0528040000410C08007A
:102CA9009011512DFFEC3EFEE0FBA3E0FAA3E0F901
:082CB9008F828E83121061FF6F
:022CC100AD075D
:0C2CC300ED25E0FFED30E704EF641BFF9F
:012CCF0022E2
:0B153600901154EBF0A3EAF0A3E9F0E1
:10154100E490115BF0A3F0E490115DF0A3F0901131
:101551005DE0FEA3E0FFC39404EE64809480400349
:1015610002169DEF2401FFE43EFE7C007D04121073
:10157100C290115BE0FEA3E07802C333CE33CED834
:10158100F9901154122CACC00790115EE02401FFB8
:1015910090115DE03400FE7C007D041210C29011B8
:1015A1005BE0FEA3E07802C333CE33CED8F92DFF42
:1015B100EC3EFE901154E0FBA3E0FAA3E0F98F8228
:1015C1008E83121061FED0E06EFC90115BE0FEA3F1
:1015D100E07802C333CE33CED8F9FF90115EE02F0D
:1015E100FF90115DE03EFE901154122CB1EF6CFFA3
:1015F100C00790115EE02402FF90115DE03400FE0F
:101601007C007D041210C290115BE0FEA3E0780221
:10161100C333CE33CED8F92DFFEC3EFE901154E00A
:10162100FBA3E0FAA3E0F98F828E83121061FED052
:10163100E06EFFC00790115EE02403FF90115DE0B2
:101641003400FE7C007D041210C290115BE0FEA309
:10165100E07802C333CE33CED8F92DFFEC3EFE90B5
:101661001154E0FBA3E0FAA3E0F98F828E831210FC
:1016710061FED0E06EFF90115DE0FCA3E02457F520
:101681008274113CF583EFF090115EE004F0600389
:1016910002154F90115DE004F002154FE490115DC9
:1016A100F0A3F090115DE0FCA3E0FD2457F58274F6
:1016B100113CF583E0FFC00790115BE0FEA3E078E9
:1016C10002C333CE33CED8F92DFFEC3EFE90115438
:1016D100E0FBA3E0FAA3E0F98F828E83D0E0121041
:1016E100A090115EE004F0700690115DE004F090AE
:1016F100115DE07004A3E0640470A890115CE00443
:10170100F0700690115BE004F0C390115CE094046A
:0D17110090115BE064809480500302154845
:01171E0022A8
:0B0A4700901151EBF0A3EAF0A3E9F0DE
:100A5200E4901158F0A3F0E490115AF0A3F0901131
:100A62005AE0FCA3E0FDC39404EC6480948040034C
:100A7200020CC9901158E0FEA3E07802C333CE33D2
:100A8200CED8F9122CA9122CC1122CC1AC0790118C
:100A920058E0FEA3E07802C333CE33CED8F9FF90FC
:100AA200115BE02FFF90115AE03EFE901151122C83
:100AB200B1122CC1EC6FFC901158E0FEA3E0780259
:100AC200C333CE33CED8F9FF90115BE02FFF9011E4
:100AD2005AE03EFE901151122CB1EF6CFFC007900C
:100AE200115BE02401FF90115AE03400FE7C007D8E
:100AF200041210C2901158E0FEA3E07802C333CE74
:100B020033CED8F9122CA9122CC1122CC1C00790D5
:100B1200115BE02401FF90115AE03400FE7C007D5D
:100B2200041210C2901158E0FEA3E07802C333CE43
:100B320033CED8F9122CA9D0E06FFFC00790115B19
:100B4200E02401FF90115AE03400FE7C007D041283
:100B520010C2901158E0FEA3E07802C333CE33CE28
:100B6200D8F92DFFEC3EFE901151E0FBA3E0FAA371
:100B7200E0F98F828E83121061FED0E06EFED0E02B
:100B82006EFFC00790115BE02402FF90115AE0341F
:100B920000FE7C007D041210C2901158E0FEA3E01A
:100BA2007802C333CE33CED8F9122CA9122CC1123B
:100BB2002CC1C00790115BE02402FF90115AE0346F
:100BC20000FE7C007D041210C2901158E0FEA3E0EA
:100BD2007802C333CE33CED8F9122CA9122CC1D04D
:100BE200E06FFFC00790115BE02402FF90115AE012
:100BF2003400FE7C007D041210C2901158E0FEA366
:100C0200E07802C333CE33CED8F92DFFEC3EFE900E
:100C12001151E0FBA3E0FAA3E0F98F828E83121058
:100C220061FED0E06EFED0E06EFFC00790115BE087
:100C32002403FF90115AE03400FE7C007D04121060
:100C4200C2901158E0FEA3E07802C333CE33CED86F
:100C5200F9122CA9122CC1122CC1C00790115BE011
:100C62002403FF90115AE03400FE7C007D04121030
:100C7200C2901158E0FEA3E07802C333CE33CED83F
:100C8200F92DFFEC3EFE901151E0FBA3E0FAA3E048
:100C9200F98F828E83121061FED0E06EFED0E06E7C
:100CA200FF90115AE0FCA3E02454F58274113CF544
:100CB20083EFF090115BE004F06003020A60901190
:100CC2005AE004F0020A60E490115AF0A3F0901185
:100CD2005AE0FCA3E0FD2454F58274113CF583E054
:100CE200FFC007901158E0FEA3E07802C333CE3371
:100CF200CED8F92DFFEC3EFE901151E0FBA3E0FAB5
:100D0200A3E0F98F828E83D0E01210A090115BE0F5
:100D120004F0700690115AE004F090115AE0700449
:100D2200A3E0640470A8901159E004F070069011D9
:100D320058E004F0C3901159E09404901158E06413
:080D42008094805003020A595D
:010D4A002286
:0B20730090114AE0FBA3E0FAA3E0F9A3
:10207E00900001121061FF90000512106190000196
:10208E001210A09000091210619000051210A0907D
:10209E00000D1210619000091210A090000DEF12A9
:1020AE0010A0900002121061FF90000A12106190B1
:1020BE0000021210A090000AEF1210A0900006125B
:1020CE001061FF90000E1210619000061210A09089
:1020DE00000EEF1210A090000F121061FF90000B77
:1020EE0012106190000F1210A09000071210619054
:1020FE00000B1210A0900003121061900007121036
:08210E00A0900003EF0210A0F5
:1021B40090000D121061FF90000912106190000D43
:1021C4001210A09000051210619000091210A09046
:1021D40000011210619000051210A0900001EF128E
:1021E40010A0900002121061FF90000A121061907A
:1021F40000021210A090000AEF1210A09000061224
:102204001061FF90000E1210619000061210A09051
:10221400000EEF1210A0900003121061FF9000074F
:102224001210619000031210A090000B1210619024
:1022340000071210A090000F12106190000B1210F2
:08224400A090000FEF0210A0B2
:0B2A9F0090114AE0FBA3E0FAA3E0F96D
:0B2AAA00901154EBF0A3EAF0A3E9F058
:102AB500E4FFFE901154E0FBA3E0FAA3E0F98F8256
:102AC5008E8312106190132C938F828E831210A027
:0B2AD5000FBF00010EEF64104E70D820
:012AE00022D3
:1029BF00901147E0FBA3E0FAA3E0F91221B49011C4
:0929CF0047E0FBA3E0FAA3E0F9E4
:0B29D800901151EBF0A3EAF0A3E9F02E
:1029E300E4FFFE901151E0FBA3E0FAA3E0F98F822C
:1029F3008E8312106190142C938F828E831210A0F9
:0B2A03000FBF00010EEF64104E70D8F2
:012A0E0022A5
:0822E200E0FBA3E0FAA3E0F920
:0B22EA00901154EBF0A3EAF0A3E9F020
:1022F500E490115CF0A3F090115CE0FEA3E0FFC355
:102305009410EE648094805065901154E0FBA3E036
:10231500FAA3E02FF9EA3EFAC003C002C001121089
:1023250048FD90115BE0C4F8540FC868FF90115A3E
:10233500E0C454F048FE90115DE02FFF90115CE081
:102345003EFE901157E0FBA3E0FAA3E0F98F828EE1
:10235500831210616DD001D002D00312108E90113E
:0E2365005DE004F0709190115CE004F080895E
:012373002247
:0B1C060090114AEBF0A3EAF0A3E9F014
:101C1100C002C001A3E0F9A3E0FAA3E0901157C903
:101C2100F0A3EAF0A3E9F0E4A3F0A3F0D001D0021D
:101C31001222EA901152E4F0A304F0901151E02431
:101C4100FFFF901150E034FFFED3901153E09FEE5F
:101C51006480F8901152E0648098504F122A9F12CC
:101C6100207390114AE0FBA3E0FAA3E0F9121536C4
:101C710090114DE0F9A3E0FAA3E0901157C9F0A348
:101C8100EAF0A3E9F0901152E0FFA3E090115ACFDE
:101C9100F0A3EFF090114A1222E2901153E004F008
:101CA1007099901152E004F0021C3C122A9F1220FC
:101CB1007390114DE0F9A3E0FAA3E0901157C9F038
:101CC100A3EAF0A3E9F0901150E0FFA3E090115ACC
:101CD100CFF0A3EFF090114AE0FBA3E0FAA3E0F903
:031CE1000222EAF2
:0B1CE400901147EBF0A3EAF0A3E9F039
:101CEF00C002C001A3E0F9A3E0FAA3E0901157C925
:101CFF00F0A3EAF0A3E9F090114DE0FFA3E09011FB
:101D0F005ACFF0A3EFF0D001D0021222EA1229BF6E
:101D1F0090114EE024FFFE90114DE034FF90114FD3
:101D2F00F0A3CEF090114FE0FEA3E0FFC39401EEBD
:101D3F0064809480404290114AE0F9A3E0FAA3E056
:101D4F00901157C9F0A3EAF0A3E9F0A3EEF0A3EFC7
:101D5F00F09011471222E2901147E0FBA3E0FAA3A3
:101D6F00E0F9120A471229BF901150E024FFF090BA
:101D7F00114FE034FFF080AC90114AE0F9A3E0FA84
:101D8F00A3E0901157C9F0A3EAF0A3E9F0E4A3F0A0
:101D9F00A3F0901147E0FBA3E0FAA3E0F90222EAD7
:100D4B00EBF0A3EAF0A3E9F090114D7401F0A3745A
:100D5B000CF0A37409F0A3E4F0A37404F0A3E4F083
:0A0D6B00A3740AF07B017A0C79FBF7
:0B0D750090114AEBF0A3EAF0A3E9F0B4
:100D8000E490115AF0A3F0901150E0FEA3E0780235
:100D9000C333CE33CED8F9FF90115AE0FCA3E0FD67
:100DA000C39FEE6480F8EC648098503690114AE05E
:100DB000FBA3E0FAA3E0F98D828C83121061FF900F
:100DC000114DE0FBA3E0FAA3E0F98D828C83EF12D2
:100DD00010A090115BE004F070AD90115AE004F0A7
:100DE00080A5901150E0FFA3E090115ACFF0A3EF3F
:100DF000F0901153E02401FF901152E03400FEEF17
:100E00007802C333CE33CED8F9FFC390115BE09F95
:100E1000EE6480F890115AE0648098400302104715
:100E2000E4901158F0A3F0901158E0FCA3E0FDC34A
:100E30009404EC64809480504C90115BE024FFFF9C
:100E400090115AE034FFFEEF7802C333CE33CED890
:100E5000F92DFFEC3EFE90114DE0FBA3E0FAA3E07C
:100E6000F98F828E83121061FF74542DF5827411F4
:100E70003CF583EFF0901159E004F070AA901158FE
:100E8000E004F080A2901150E0FCA3E0FD90115A24
:100E9000E0FEA3E0FF1210C2ED4C6003020F2C90A5
:100EA0001154E0FFA3E0901154F0901156E090111E
:100EB00055F0901157E0901156F0A3EFF0E4A3F035
:100EC000A3F0901158E0FEA3E0FF2454F5827411C2
:100ED0003EF583E090132C93FD74542FF58274112A
:100EE0003EF583EDF0901159E004F0700690115832
:100EF000E004F0901158E07004A3E0640470C39023
:100F00001154E0FB901150E0FCA3E0FD90115AE079
:100F1000FEA3E0FF1210C2742B2FF58274153EF56C
:100F200083E493FFEB6F901154F08066901150E0D2
:100F3000FCA3E0FDD39406EC6480948040549011AF
:100F40005AE0FEA3E0FF1210C2ED64044C7043901F
:100F50001158F0A3F0901158E0FEA3E0FF2454F5DF
:100F60008274113EF583E090132C93FD74542FF599
:100F70008274113EF583EDF0901159E004F0700693
:100F8000901158E004F0901158E07004A3E064045C
:100F900070C3E4901158F0A3F0901150E0FEA3E06C
:100FA000FFC390115BE09FFF90115AE09EFEEF7827
:100FB00002C333CE33CED8F9FF901158E0FCA3E042
:100FC000FD2FFFEC3EFE90114DE0FBA3E0FAA3E005
:100FD000F98F828E83121061FF74542DF582741183
:100FE0003CF583E06FFD90115AE0FEA3E07802C368
:100FF00033CE33CED8F9FF901159E02FFF9011581E
:10100000E03EFE90114DE0FBA3E0FAA3E0F98F82F1
:101010008E83ED1210A0901159E004F0700690112B
:1010200058E004F0901158E07004A3E064046003F9
:10103000020F9990115BE004F06003020DF1901132
:071040005AE004F0020DF17B
:011047002286
:0319E60090112F2E
:1019E900120D4BE4901135F0A3F0E4901137F0A3F8
:1019F900F0901137E0FCA3E0FDC39410EC648094EF
:101A0900805049901136E0C4F8540FC868FF90110E
:101A190035E0C454F048FEED2FFFEC3EFE90112F47
:101A2900E0FBA3E0FAA3E0F98F828E83121061FF35
:101A390074392DF58274113CF583EFF0901138E07B
:101A490004F070AD901137E004F080A590114D7449
:101A590001F0A3740CF0A37409F0A3E4F0A3740AD1
:101A6900F07B017A117939121C06E4901137F0A341
:101A7900F0901137E0FCA3E0FD2439F58274113CA4
:101A8900F583E0FFC007901136E0C4F8540FC86829
:101A9900FF901135E0C454F048FEED2FFFEC3EFEF7
:101AA900901132E0FBA3E0FAA3E0F98F828E83D094
:101AB900E01210A0901138E004F07006901137E0A0
:101AC90004F0901137E07004A3E0641070A3901142
:101AD90036E004F07006901135E004F0C390113639
:101AE900E09420901135E06480948050030219F34A
:101AF900901132E0FBA3E0FAA3E0F9900200E402BE
:021B090010A02A
:1018BF0090112F7401F0A3740AF0A37404F07B014C
:0318CF007A0AF999
:0318D20090112C46
:1018D500120D4BE4901132F0A3F0E4901134F0A313
:1018E500F0901134E0FCA3E0FDC39410EC64809407
:1018F500805049901133E0C4F8540FC868FF901127
:1019050032E0C454F048FEED2FFFEC3EFE90112C62
:10191500E0FBA3E0FAA3E0F98F828E83121061FF4A
:1019250074362DF58274113CF583EFF0901135E096
:1019350004F070AD901134E004F080A590114A7464
:1019450001F0A3740CF0A37409F0A3E4F0A3740AE6
:10195500F07B017A117936121CE4E4901134F0A37E
:10196500F0901134E0FCA3E0FD2436F58274113CBF
:10197500F583E0FFC007901133E0C4F8540FC86841
:10198500FF901132E0C454F048FEED2FFFEC3EFE0F
:1019950090112FE0FBA3E0FAA3E0F98F828E83D0AC
:1019A500E01210A0901135E004F07006901134E0BB
:1019B50004F0901134E07004A3E0641070A390115A
:1019C50033E004F07006901132E004F0C390113357
:1019D500E09420901132E06480948050030218DF77
:0119E50022DF
:10280A0075960E759701E59620E7FB759691E59604
:10281A0020E7FBAF97901194E0B4030D75961175FC
:10282A009710E59630E73680F9EF30E50B7596118B
:10283A00759740E59620E7FBEF30E20B759611E4B9
:10284A00F597E59620E7FBEF20E012901125E024AA
:0D285A00FD600724027006021B0B122C55B6
:01286700224E
:10224C00E4FFFE75960E759702E59620E7FB7596F2
:10225C0094E59620E7FBAD97901195E0B4030D75CE
:10226C009614759720E59630E76B80F9ED30E60B08
:10227C00759614759780E59620E7FBED30E0567562
:10228C00960E759702E59620E7FB759696E59620D7
:10229C00E7FBAF977E00AD077C0090111EE0FBA31F
:1022AC00E0FAA3E0F97F2212296D75960E7597025C
:1022BC00E59620E7FB759614E4F597E59620E7FB89
:1022CC00901125E06402600A900D0CE0B4550302F5
:0522DC0026D7120046A8
:0122E10022DA
:1026D700E4901129F0900D10E0900F14F0900D1177
:1026E700E0900F15F0900D12E0900F16F0900D137B
:1026F700E0900F17F0900D1BE012124D272E0027C8
:10270700221227251A27371E273A23272B25272862
:102717002827342A27312F0000273D022B48022B78
:10272700A6021DAF022BD202003E022E02021F2676
:09273700022DFF022BFE122E05FB
:012740002276
:102B4800900D1FE0602B9011257403F07BFF7A1223
:102B580079F07D247C007F21122A5875960E75978E
:102B680001E59620E7FB759611759701E59620E734
:022B7800FB223E
:102BA6009011257403F07BFF7A1379147D0C7C0059
:102BB6007F21122A5875960E759701E59620E7FB38
:0C2BC600759611759701E59620E7FB223B
:102BD2009011257403F07BFF7A1279E87D087C005E
:102BE2007F21122A5875960E759701E59620E7FB0C
:0C2BF200759611759701E59620E7FB220F
:102BFE009011257403F07B007A0079237D027C000E
:102C0E007F21122A5875960E759701E59620E7FBDF
:0C2C1E00759611759701E59620E7FB22E2
:03003E00022C553C
:032DFF00022C554E
:032E0200022C554A
:012E050022AA
:102C55007B017A0F79107D0D7C007F21122A587532
:102C6500960E759701E59620E7FB75961175970108
:0B2C7500E59620E7FBE4901125F0221B
:101DAF00E490112AF0A3F0B280900D1FE0FFA3E0A2
:101DBF00900F0CCFF0A3EFF0900D22E0FFA3E09077
:101DCF000C04CFF0A3EFF0900F0CE0FEA3E078052A
:101DDF00CEC313CE13D8F9FFEE5407900CF9F0A32E
:101DEF00EFF0900F0DE0541F900F0FF0900F0CE0DD
:101DFF00FEA3E0FFE4FCFD7B017A0A790412257251
:101E0F001218BF900C05E024FFF0900C04E034FF93
:101E1F00F0900F0DE004F07006900F0CE004F090BE
:101E2F0011257401F0901122F0A3740AF0A3740429
:101E3F00F0E4900C06F0A3F0901122E0FBA3E0FA7F
:101E4F00A3E02400F9E43AFA7D407C007F21122AB6
:101E5F005875960E759701E59620E7FB75961175E7
:071E6F009701E59620E7FB57
:011E76002249
:101B0B00E4901129F0A3F0C3900C07E094C0900C63
:101B1B0006E094015049A3E02440F0900C06E03419
:101B2B0000F0901122E0FBA3E0FAA3E0F9900C0681
:101B3B00E0FEA3E0FFE92FF9EA3EFA7D407C007F4F
:101B4B0021122A5875960E759701E59620E7FB75BD
:101B5B009611759701E59620E703021C0580F6D3D5
:101B6B00900C05E09400900C04E09400407C900FE6
:101B7B000CE0FEA3E0FFE4FCFD7B017A0A79041282
:101B8B0025721218BF900F0DE004F07006900F0C29
:101B9B00E004F0900C05E024FFF0900C04E034FF1F
:101BAB00F0E4900C06F0A3F090112204F0A3740A59
:101BBB00F0A37404F0A37401F0901122E0FBA3E0F6
:101BCB00FAA3E02400F9E43AFA7D407C007F21126D
:101BDB002A5875960E759701E59620E7FB759611B9
:101BEB00759701E59630E71280F99011257403F093
:0A1BFB00E4900C06F0A3F0122C5544
:011C050022BC
:101F2600E490112AF0A3F0B280900D1FE0FFA3E029
:101F3600900F0CCFF0A3EFF0900D22E0FFA3E090FE
:101F46000C04CFF0A3EFF0900F0CE0FF900CF9E437
:101F5600F0A3EFF0900F0DE0FD7C007E007802CE3E
:101F6600C313CE13D8F9900F0FF0AE04AF05ED549E
:101F760003901121F0900F0DE0541FFFEF4440FF36
:101F8600900F0C747EF0A3EFF0900F0FE0F9541F42
:101F9600FD900F0CE0FAA3E054E0FBEAFFEB4D9056
:101FA6000F0CCFF0A3EFF0900C08E9F0901121E0B0
:101FB600900F0EF09011257402F0E4900C06F0A339
:081FC600F07FF27E030228C146
:10004600E4901129F0A3F0900C07E02440F0900C06
:1000560006E03400F090111FE475F0401210F8909D
:100066000C06E064027002A3E0600302033A7B011F
:100076007A0D790C90113204F0A3740DF0A3740C70
:0E008600F01219E6900F0EE0FB70030201BDB0
:10009400900CFAE0FC900C08E075F004A42400FF36
:1000A400E5F03CFEEB7C002FFFEC3EFEE4FD9011FE
:1000B4002B12124190112BE0FCA3E0FDA3E0FEA360
:1000C400E024FFFFEE34FFFEED34FFFDEC34FFFCD3
:1000D40090112B121241EBB401030201A1900F0EF7
:1000E400E06402703B90112BE0FCA3E0FDA3E0FE72
:1000F400A3E0FF7B017A04790412257290112BE0AE
:10010400FCA3E0FDA3E0FEA3E024FFFFEE34FFFE2A
:10011400ED34FFFDEC34FFFC90112B121241807D75
:10012400900F0EE0640360030201B890112BE0FC11
:10013400A3E0FDA3E0FEA3E0FF7B017A06790412AD
:10014400257290112BE0FCA3E0FDA3E0FEA3E024C4
:10015400FFFFEE34FFFEED34FFFDEC34FFFC9011A5
:100164002B12124190112BE0FCA3E0FDA3E0FEA3AF
:10017400E0FF7B017A04790412257290112BE0FCD4
:10018400A3E0FDA3E0FEA3E024FFFFEE34FFFEEDB9
:1001940034FFFDEC34FFFC90112B12124190112B13
:1001A400E0FCA3E0FDA3E0FEA3E0FF7B017A02797B
:0901B40004122572E4900F0EF014
:0701BD00901121E0FF7042E8
:1001C40090112BF0A3F090112BE0FCA3E0FD240C84
:1001D400F582740D3CF583E0FE74042DF5827402FF
:1001E4003CF583EEF090112CE004F0700690112B96
:0F01F400E004F090112BE0B402CCA3E0B400C7FC
:07020300020294EFB4014276
:10020A00E490112BF0A3F090112BE0FEA3E0FF2461
:10021A000CF582740D3EF583E0FD74042FF58274AB
:10022A00043EF583EDF090112CE004F07006901175
:10023A002BE004F090112BE0B402CCA3E0B400C789
:0A024A008048901121E0FFB4024546
:10025400E490112BF0A3F090112BE0FCA3E0FD241B
:100264000CF582740D3CF583E0FE74042DF5827464
:10027400063CF583EEF090112CE004F0700690112A
:100284002BE004F090112BE0B402CCA3E0B400C73F
:03029400901121A5
:070297008068EF640370664C
:10029E0090112BF0A3F090112BE0FEA3E0FF240CA5
:1002AE00F582740D3EF583E0FD74042FF58274081B
:1002BE003EF583EDF090112CE004F0700690112BBA
:1002CE00E004F090112BE0B402CCA3E0B400C79090
:1002DE000F0FE02480FFE434FCFE3395E0FDFCE4D8
:1002EE007B04FAF9F81211241225EBE4901121F097
:0602FE00900F0FE004F078
:10030400900F0DE004F07006900F0CE004F0900CD8
:1003140005E024FFF0900C04E034FFF0E4900C06B8
:10032400F0A3F07B017A0D790C90111E04F0A374F4
:100334000DF0A3740CF0D3900C05E09400900C0421
:10034400E09400500302046A900F0FE064406003DD
:1003540002046A900F0CE0F0A3E054E0F0E4901182
:1003640029F0A3F0900C08E0FF901129E0FCA3E031
:10037400FDC39FEC9400504F900CF9E0FEA3E0788D
:1003840006C333CE33CED8F92DFFEC3EFEE4FCFD9C
:100394007B04FAF9F812112412274190112AE0245F
:1003A40080FF901129E034FCFEE4FCFD7B04FAF9A3
:1003B400F81211241225EB90112AE004F070A59094
:1003C4001129E004F0809D900CF9E0FEA3E0FF12F7
:1003D40028C1900F0CE0F0A3E054E0F0E490112960
:1003E400F0A3F0901129E0FEA3E0FFC39440EE9443
:1003F400005051EF2480FFEE34FCFEE4FCFD7B044E
:10040400FAF9F8121124122741900CF9E0FEA3E046
:100414007806C333CE33CED8F9FF90112AE02FFFEC
:10042400901129E03EFEE4FCFD7B04FAF9F8121178
:10043400241225EB90112AE004F070A7901129E012
:1004440004F0809F900CFAE004F07006900CF9E040
:1004540004F0E4900F0FF0900C06F0A3F0A3F07FEB
:10046400F27E031228C1900C04E07002A3E0600342
:100474000206E1900F0CE0F0A3E054E0F0901121AB
:07048400E0FB7003020571AB
:10048B00900CFAE0FC900F0FE075F004A42400FF31
:10049B00E5F03CFEEB7C002FFFEC3EFEE4FD901103
:1004AB002B121241EB6401703890112BE0FCA3E08E
:1004BB00FDA3E0FEA3E0FF7B017A04790412257211
:1004CB0090112BE0FCA3E0FDA3E0FEA3E02401FFD1
:1004DB00E43EFEE43DFDE43CFC90112B1212418006
:1004EB0008901121E06402703890112BE0FCA3E01E
:1004FB00FDA3E0FEA3E0FF7B017A067904122572CF
:10050B0090112BE0FCA3E0FDA3E0FEA3E02401FF90
:10051B00E43EFEE43DFDE43CFC90112B12124180C5
:10052B0007901121E0B4031790112BE0FCA3E0FD21
:10053B00A3E0FEA3E0FF7B017A08790412257290F9
:10054B000F0FE02480FFE434FCFE3395E0FDFCE468
:10055B007B04FAF9F81211241225EB900F0FE0042B
:06056B00F0E4901121F004
:10057100E4901129F0A3F0900C08E0FF901129E01C
:10058100FCA3E0FDC39FEC9400504F900CF9E0FEFA
:10059100A3E07806C333CE33CED8F92DFFEC3EFE6F
:1005A100E4FCFD7B04FAF9F81211241227419011A1
:1005B1002AE02480FF901129E034FCFEE4FCFD7B5D
:1005C10004FAF9F81211241225EB90112AE004F033
:1005D10070A5901129E004F0809D900F0FE0FB546D
:1005E1001FFF900F0CE0FCA3E054E0FDECFEED4F8B
:1005F100FF900F0CEEF0A3EFF0901129E4F0A3EBC4
:10060100F0901129E0FCA3E0FDC39440EC9400506C
:100611004F900CF9E0FEA3E07806C333CE33CED879
:10062100F92DFFEC3EFEE4FCFD7B04FAF9F8121112
:100631002412274190112AE02480FF901129E034EF
:10064100FCFEE4FCFD7B04FAF9F81211241225EBFF
:1006510090112AE004F070A9901129E004F080A122
:10066100900CF9E0FEA3E0FF1228C1900F0CE0F01E
:10067100A3E054E0F0E4901129F0A3F0901129E0F7
:10068100FEA3E0FFC39440EE94005051EF2480FF9D
:10069100EE34FCFEE4FCFD7B04FAF9F8121124129D
:1006A1002741900CF9E0FEA3E07806C333CE33CEA8
:1006B100D8F9FF90112AE02FFF901129E03EFEE4C6
:1006C100FCFD7B04FAF9F81211241225EB90112A92
:1006D100E004F070A7901129E004F0809F122C55DE
:0106E10022F6
:0300000002237464
:0C237400787FE4F6D8FD7581210223BBC0
:10104800BB010689828A83E0225002E722BBFE02A6
:09105800E32289828A83E49322D9
:10106100BB010CE58229F582E5833AF583E0225044
:1010710006E92582F8E622BBFE06E92582F8E2228E
:0D108100E58229F582E5833AF583E49322A8
:10108E00BB010689828A83F0225002F722BBFE0141
:02109E00F3223B
:1010A000F8BB010DE58229F582E5833AF583E8F086
:1010B000225006E92582C8F622BBFE05E92582C832
:0210C000F2221A
:1010C200C2D5EC30E709B2D5E4C39DFDE49CFCEE49
:1010D20030E715B2D5E4C39FFFE49EFE121273C33C
:1010E200E49DFDE49CFC800312127330D507C3E437
:0610F2009FFFE49EFE22B8
:1010F800C5F0F8A3E028F0C5F0F8E5821582700283
:061108001583E038F0221F
:10110E00A3F8E0C5F025F0F0E58215827002158394
:06111E00E0C838F0E822F1
:10112400E88FF0A4CC8BF0A42CFCE98EF0A42CFC6A
:101134008AF0EDA42CFCEA8EF0A4CDA8F08BF0A4E8
:101144002DCC3825F0FDE98FF0A42CCD35F0FCEB47
:101154008EF0A4FEA9F0EB8FF0A4CFC5F02ECD390C
:0F116400FEE43CFCEAA42DCE35F0FDE43CFC2279
:1011730075F008758200EF2FFFEE33FECD33CDCC33
:1011830033CCC58233C5829BED9AEC99E5829840B6
:101193000CF582EE9BFEED9AFDEC99FC0FD5F0D693
:1011A300E4CEFBE4CDFAE4CCF9A88222B800C1B9BD
:1011B3000059BA002DEC8BF084CFCECDFCE5F0CBFB
:1011C300F97818EF2FFFEE33FEED33FDEC33FCEB34
:1011D30033FB10D703994004EB99FB0FD8E5E4F9EF
:1011E300FA227818EF2FFFEE33FEED33FDEC33FCDC
:1011F300C933C910D7059BE99A4007EC9BFCE99AD0
:10120300F90FD8E0E4C9FAE4CCFB2275F010EF2F14
:10121300FFEE33FEED33FDCC33CCC833C810D70714
:101223009BEC9AE899400AED9BFDEC9AFCE899F84F
:0E1233000FD5F0DAE4CDFBE4CCFAE4C8F922E2
:0C124100ECF0A3EDF0A3EEF0A3EFF02220
:10124D00D083D082F8E4937012740193700DA3A330
:10125D0093F8740193F5828883E473740293686044
:06126D00EFA3A3A380DF44
:1006E200E5082462F582E43411F583E005082290DE
:1006F200115F300703901162E475F0011212C80213
:1007020010482000E97F2ED2008018EF540F249069
:10071200D43440D4FF30040BEF24BFB41A0050038A
:100722002461FFE50960021509050CE50C7002055C
:100732000B30070E90115FE475F0011212C8EF0240
:10074200108E022CD07403D2078003E4C207F5088E
:1007520090115F1212DFE4F509F50BF50CE5096063
:10076200077F2012072580F5750AFFC201C200C269
:1007720002C203C205C206C2081206F1FF700D30A2
:1007820007057F00120736AF0CAE0B22B4255FC2FD
:10079200D5C2041206F1FF24D0B40A00501A75F033
:1007A2000A780930D50508B6FF0106C6A426F62048
:1007B200D5047002D20380D924CFB41A00EF5004BA
:1007C200C2E5D204020937D20180C6D20080C0D26B
:1007D2000280BCD2D580BAD20580B47F2012072510
:1007E2002002077401B5090040F11206E2FF120768
:1007F2002502075FD208D20680951206E2FB120696
:10080200E2FA1206E2F94A4B700679087A0A7BFF8D
:1008120020022EE509602A7E008E82758300121066
:100822006160060EEE650A70F0C2D5EBC0E0EAC068
:10083200E0E9C0E0EE12097ED0E0F9D0E0FAD0E0C3
:10084200FB121048FF60AAEBC0E0EAC0E0E9C0E09A
:10085200120725D0E02401F9D0E03400FAD0E0FB01
:10086200E50A0460DCD50AD980877BFF7A09797AA8
:10087200D202809C791080027908C206C2088008E0
:10088200D2D5790A8004790AC2D5E50A047002F544
:100892000AE4FAFDFEFF1206E2FC7B0820011312B5
:1008A20006E2FD7B1030000A1206E2FE1206E2FFAB
:1008B2007B20EC3382D592D55013C3E43000069FDF
:1008C200FFE49EFEE42001039DFDE49CFCE4CBF8E2
:1008D200C201EC700CCFCECDCCE824F8F870F380D6
:1008E20017C3EF33FFEE33FEED33FDEC33FCEB3396
:1008F200FB994002FB0FD8E9EB300105F8D0E0C4C8
:1009020048B201C0E00AEC4D4E4F78207B0070C225
:10091200EAB50A0040BCC0E0120980D0F0D0E02065
:100922000104C4C0E0C4B201C0F012070ED0F0D579
:10093200F0EB02075F12124D07FC5308765807CD01
:100942004C07C942087A4F08824408824907E243A9
:08095200088855086C46086C8A
:10095A0045086C470A285007D12D07D52E07F82BD2
:10096A0007D92307F6200A112A079148000007F041
:10097A003F3F3F00790AA2D5200314300509B91078
:10098A00020404B9080104A2D52006025001042079
:10099A0002689202B509005034C0E07F2030031982
:1009AA007F30A20272067205500F1209D7C202C224
:1009BA0006C205C2087F30800F300503E9C0E01285
:1009CA000725300503D0E0F9D0E0B509CC3005178A
:1009DA007F30B9100C1207257F583004077F7880C2
:1009EA0003B908031207253002057F2D0207257F68
:1009FA00202008F87F2B2006F322920280CF286E4F
:100A0A00756C6C2900D2011206E23001F8C2017835
:100A1A000930D50108F60207912D504349581206AC
:100A2A00E22403B405004001E4900A239312071656
:0D0A3A00743A120716D203750904020876FB
:10238000022B7AE493A3F8E493A34003F68001F2CE
:1023900008DFF48029E493A3F85407240CC8C3335E
:1023A000C4540F4420C8834004F456800146F6DF2D
:1023B000E4800B01020408102040809027A7E47EEF
:1023C000019360BCA3FF543F30E509541FFEE49322
:1023D000A360010ECF54C025E060A840B8E493A3E9
:1023E000FAE493A3F8E493A3C8C582C8CAC583CA14
:1023F000F0A3C8C582C8CAC583CADFE9DEE780BECC
:0128090000CE
:10127300BC000BBE0029EF8DF084FFADF022E4CC5F
:10128300F875F008EF2FFFEE33FEEC33FCEE9DEC28
:10129300984005FCEE9DFE0FD5F0E9E4CEFD22ED6E
:1012A300F8F5F0EE8420D21CFEADF075F008EF2FB8
:1012B300FFED33FD4007985006D5F0F222C398FDA9
:0512C3000FD5F0EA2246
:1012C800F8E0FBA3A3E0F925F0F0E58215827002AF
:0712D8001583E0FA38F02253
:0912DF00EBF0A3EAF0A3E9F02210
:102CD000EFB40A07740D122CDB740A309811A8990E
:102CE000B8130CC2983098FDA899C298B811F63064
:072CF00099FDC299F599223C
:00000001FF
